S01900004F63746F706C75732D54656D706C6174652E7372656349
S113000004C100001FC100001DC100001BC100008D
S113001019C1000017C1000015C1000013C1000080
S113002011C100000FC100000DC100000BC1000090
S113003009C100000C94C10CDDC700000C94230816
S11300400C944C080C9475080C949E080C94C708E6
S11300500C94F0080C9419090C9442090C946B0943
S1130060F1C00000EFC00000EDC00000EBC00000D4
S1130070E9C00000E7C00000E5C00000E3C00000E4
S1130080E1C00000DFC00000DDC00000DBC00000F4
S1130090D9C00000D7C00000D5C00000D3C0000004
S11300A0D1C00000CFC00000CDC00000CBC0000014
S11300B0C9C00000C7C000000C94E40C0C942E0BC3
S11300C00C94570B0C94800B0C94A90B0C94D20B2E
S11300D00C94FB0BB7C00000B5C00000B3C0000017
S11300E0B1C00000AFC00000ADC00000ABC0000054
S11300F0A9C00000A7C00000A5C00000A3C0000064
S1130100A1C000009FC000009DC000009BC0000073
S113011099C0000097C0000095C0000093C0000083
S113012091C000008FC000008DC000008BC0000093
S113013089C000000C9494090C94BD090C94E60940
S11301400C940F0A0C94380A0C94610A0C948A0AD1
S11301500C94B30A0C94DC0A0C94050B73C00000D5
S113016071C000006FC000006DC000006BC00000D3
S113017069C0000067C0000065C0000063C00000E3
S113018061C000005FC000005DC000005BC00000F3
S113019059C0000057C0000055C0000053C0000003
S11301A051C000004FC000004DC000004BC0000013
S11301B049C0000047C0000045C0000043C0000023
S11301C041C000003FC000003DC000003BC0000033
S11301D039C0000037C0000035C0000033C0000043
S11301E031C000002FC000002DC000002BC0000053
S11301F029C000000C94F9110C94AF12050EF30DF4
S1130200F60DF90DFC0DFF0D020E11241FBECFEFEC
S1130210CDBFDFE2DEBF10E2A0E0B0E2E6EBF9E33F
S113022002C005900D92A43AB107D9F723E2A4EADB
S1130230B0E201C01D92A136B207E1F70E9457183F
S11302400C94D91CDDCE1092BA211092C6211092C2
S1130250C72181EA8093BC2180E28093BD21109262
S1130260BE211092BF211092C0211092C12182E0C0
S113027090E08093C2219093C3211092C4211092E4
S1130280C52180E092ECA1E0B0E08093C821909376
S1130290C921A093CA21B093CB211092CC211092F2
S11302A0CD2188E08093CE218091BA218F5F809305
S11302B0BA2181E008958091BA2181508093BA21B6
S11302C008958091B92181508093B9218091B921F9
S11302D01092B821089580E0089580E008958091F7
S11302E045238823DCF480768032E9F58091462327
S11302F08132D9F580914B2390914C230797B9F51E
S113030088EC91E280934D2390934E2387E090E014
S113031080934F239093502381E008958076803218
S113032041F580914623803221F0823221F581E02B
S1130330089580914B2390914C230797F1F48FEB10
S113034091E0809351239093522388EC91E280931F
S11303504D2390934E2387E090E080934F23909316
S1130360502381E0089580E0089580E0089580E0BE
S1130370089580E0089580E0089580E00895089548
S1130380FF920F931F93CF93DF938091A720811146
S11303909CC00E943B10882351F0C091A820D091AA
S11303A0A9200E944810C817D90759F48EC0C091DB
S11303B0A820D091A9200E944310C817D90709F496
S11303C084C0DFB7F894C091AA20EC2FF0E0EE0FC0
S11303D0FF1FE555FF4D80819181892B09F580919F
S11303E0A4209091A52001968093A4209093A52009
S11303F00E943B10811107C08091A4209091A520F8
S11304008436910558F00E943B10882349F080916E
S1130410A4209091A5208032934010F4DFBF55C0F2
S11304201092A4201092A5208091A620811106C0CC
S113043081E0C11180E08093AA2004C081E0C11151
S113044080E0C82F81E08093A720DFBFD0E0FE01C9
S1130450EE0FFF1FE555FF4DFF24F394808191813A
S11304608034910509F4F12CFF2091F00E943B1097
S1130470882339F00E9448108093A8209093A920E3
S11304800BC00E9443108093A8209093A92004C01D
S11304901092A8201092A920FE01EE0FFF1FE5552F
S11304A0FF4D20813181AE01002456954795079474
S11304B0569547950794542F402D40555F4D0BE6B4
S11304C012E06F2D81E80E94FA10DF91CF911F9105
S11304D00F91FF900895811115C02091AA2081E009
S11304E090E0222311F080E090E0FC01EE0FFF1F6A
S11304F0E555FF4D108211821092A6201092A7207C
S113050080E03ECF089580E03BCF08954FB7F89444
S11305102091312130913221E0913321F0E0EE0F2E
S1130520FF1FEC5CFE4D80819181821B930B4FBFBA
S11305300895ECDF21E0892B09F420E0822F08954F
S11305400F931F93CF93DF934FB7F89450913321B8
S113055080913021811110C02091312130913221BC
S1130560C52FD0E0FE01EE0FFF1FEC5CFE4D808135
S113057091812817390718F44FBF80E023C01092E7
S113058031211092322181E0511180E08093332196
S113059081E0809330214FBF80E0CBDFAE010024A7
S11305A0569547950794569547950794542F402D93
S11305B0485C5E4D09E113E020E430E061E082E054
S11305C00E94FA10DF91CF911F910F91089510921C
S11305D0B9211092A7201092A6201092AA2010925E
S11305E0AB201092AC201092AD201092AE2010924D
S11305F0A8201092A92080E0C3DE1092302110922E
S1130600332110923421109235211092312110920D
S1130610322180E095DF882359F09091B9219F5FC2
S11306209093B9219091B921913011F49093B8210C
S113063008950F931F93942F811129C08091332122
S1130640E1E08111E0E061157105B1F4F0E000240E
S1130650F695E7950794F695E7950794FE2FE02D18
S1130660AF01485C5E4D09E113E020E430E061E055
S1130670892F0E94FA100BC0F0E0EE0FFF1FEC5C14
S1130680FE4D608371831092302180E059DF1F9109
S11306900F91089580E04DCF08951F93CF93DF937A
S11306A011E08091CE21893009F010E060E070E023
S11306B03FB7F894809131219091322120913321D8
S11306C03FBF30E0F901EE0FFF1FEC5CFE4D4081AF
S11306D051818417950730F08091B8218111E8CFBA
S11306E090E020C0F9010024F695E7950794F6956B
S11306F0E7950794FE2FE02DE80FF91FE85CFE4D07
S11307002081EB01C22B01968093312190933221F9
S113071080E016DF112321F07C2F662710E0C8CF7C
S11307208C2F9D2FDF91CF911F91089580E0B5CF3D
S113073008955FB7F8942091AA20E22FF0E0EE0F1D
S1130740FF1FE555FF4D8081918141E0211140E07B
S1130750E42FF0E0EE0FFF1FE555FF4D20813181BE
S11307608034910589F46091A72061110DC06091D6
S1130770A620611109C081E08093A6204093AA209D
S113078020E430E080E090E05FBF280F391F80E86C
S113079090E0821B930B0895CCDF21E0892B09F4B0
S11307A020E0822F08951F93CF93DF93162FC72F36
S11307B0D1E08091CE21893009F0D0E080E0ECDFF7
S11307C0811107C08091B8218111F8CF80E090E0B9
S11307D02BC06FB7F8942091AA2030E0F901EE0FF6
S11307E0FF1FE555FF4D80819181AC014F5F5F4F45
S11307F040835183F9010024F695E7950794F69513
S1130800E7950794FE2FE02D8E0F9F1FFC01E05506
S1130810FF4D10836FBFDD2329F01C2FCC0FCC0BB1
S1130820D0E0CCCF81E090E0DF91CF911F9108958B
S1130830BC0180E0B8CF0895E091D421F091D52196
S11308400190F081E02D228133812E0F3F1FFC01A6
S11308504081E40FF11DE217F307A0F48181843095
S1130860A1F0861306C014C081818430A1F08617DC
S1130870A9F08081E80FF11DE217F307A8F380E0E7
S113088090E0089580E090E0089580E090E008957D
S11308908E2F9F2F089580E090E008958E2F9F2F34
S11308A00895809147238F770C943D10089590917B
S11308B0D621992381F1E091D421F091D5210190A1
S11308C0F081E02D9481891740F5E093D221F093D3
S11308D0D321228133812E0F3F1FE217F307F8F44F
S11308E09181943061F49281981309C09381961395
S11308F006C0E093D221F093D32181E00895908142
S1130900E90FF11DE217F30758F3E093D221F093B6
S1130910D32180E0089580E0089580E0089580E088
S11309200895FF920F931F93CF93DF93C82F60E036
S1130930BEDFF82E882381F1A091D421B091D52176
S1130940EC2FF0E0EE0FFF1F12962D913C911397C0
S1130950E20FF31F00811181D8011696ED91FC91ED
S113096017970995682F8C2FA2DFF82E8823A1F002
S1130970C091D221D091D32165E0CE015DDFEC019D
S1130980009721F08A810E94BB11F6CFD8011296FC
S1130990ED91FC91139709958F2DDF91CF911F91C4
S11309A00F91FF9008951F93CF93DF93182F7FDF4C
S11309B0882341F1C091D221D091D32165E0CE01A9
S11309C03BDFEC01009749F04C815D816B818A81AA
S11309D00E9454108111F2CF15C0A091D421B0917E
S11309E0D521812F90E0880F991F1296ED91FC91EB
S11309F01397E80FF91F0190F081E02D0190F08129
S1130A00E02D0995DF91CF911F9108950C94CA0FA1
S1130A100895CF938091D6218823C1F0E091D42109
S1130A20F091D5210190F081E02D8481882371F02B
S1130A30C0E08C2F76DFCF5FE091D421F091D521F7
S1130A400190F081E02D8481C81798F31092D6218B
S1130A5081E090E08093D7219093D821CF9108959D
S1130A60CF938091D621882341F1E091D421F09154
S1130A70D521A081B18114968C918823F1F0C0E036
S1130A808C2F90E0880F991F0280F381E02DE80FEE
S1130A90F91F0190F081E02D0084F185E02D30975D
S1130AA009F00995CF5FE091D421F091D521A0817F
S1130AB0B18114968C91C81718F3CF910895EF92D1
S1130AC0FF920F931F93CF93DF9310924F231092B3
S1130AD050231092512310925223109253231092B8
S1130AE054232091452322230CF072C280914B237E
S1130AF090914C23009709F070C266C22F7109F0DF
S1130B0091C030914623363089F0383009F47EC0E4
S1130B10311188C0029741F462E070E087ED91E200
S1130B200E944B1001E0D3C100E0D1C120914723C2
S1130B3030914823832F992782309105A1F01CF42A
S1130B40019739F059C083309105E9F10F9769F1A4
S1130B5053C08091182090911920DC016C9170E0B1
S1130B600E944B1038C0E0911820F091192081891F
S1130B70281708F043C0C9019927880F991F880FC7
S1130B80991FE0911A20F0911B20E80FF91F808132
S1130B909181FC01628173810E944B10E0914D238D
S1130BA0F0914E2382E0818316C080911C209091A5
S1130BB01D20009729F1DC0112966D917C91139709
S1130BC00E944B1008C021111DC064E070E084E154
S1130BD090E20E944B1080914B2390914C232091E2
S1130BE04F23309150238217930770F480934F233F
S1130BF09093502301E06BC100E069C100E067C13C
S1130C0000E065C100E063C101E061C1019741F406
S1130C1061E070E086ED91E20E944B1001E057C163
S1130C2000E055C1213009F040C0309146233A30EC
S1130C30E1F50197A1F58091D621882391F1C09126
S1130C404923D0914A23E090D421F090D521D701B3
S1130C50ED91FC918481C81730F560E08C2F27DE7C
S1130C60082F882309F433C1CE019927880F991FCF
S1130C70D7011296ED91FC911397E80FF91F01909B
S1130C80F081E02D0680F781E02D09958093D12134
S1130C9061E070E081ED91E20E944B1018C100E028
S1130CA016C100E014C100E012C1223009F011C1E4
S1130CB020914623211106C1029789F4809149238A
S1130CC00E94B51090E08093CF219093D02162E0F0
S1130CD070E08FEC91E20E944B1001E0F8C000E05C
S1130CE0F6C02F7109F091C080914623833009F436
S1130CF0EBC018F48130B1F088C0853019F0893028
S1130D0061F183C080914B2390914C23892B41F452
S1130D1081E594E0809351239093522301E0D7C05E
S1130D2000E0D5C080914B2390914C23892B89F40A
S1130D308091472390914823019769F48091D721AA
S1130D409091D8218D7F8093D7219093D82101E071
S1130D50BEC000E0BCC000E0BAC080914B239091BB
S1130D604C23892B09F047C00E944010882309F4C2
S1130D7044C020914723309148233327E091182021
S1130D80F0911920818990E082179307C0F141DE28
S1130D9080914723909148238093D621882389F119
S1130DA099278150904C880F991F880F991FE091C3
S1130DB01A20F0911B20E80FF91FE093D421F0933F
S1130DC0D5210190F081E02D84818823E1F0C0E0F9
S1130DD060E08C2FE8DD082F882309F478C0CF5F0A
S1130DE0E091D421F091D5210190F081E02D84810E
S1130DF0C81770F36CC000E06AC000E068C000E08F
S1130E0066C001E064C001E062C0213009F5809150
S1130E1046238B30E9F480914B2390914C23892B0A
S1130E2099F48091D621882389F0C0914923D091E7
S1130E3047238C2F76DD082F882309F448C06D2FB3
S1130E408C2FB1DD082F43C000E041C000E03FC05B
S1130E50223009F03EC080914623813019F083305E
S1130E60B9F034C080914B2390914C23892B61F4C9
S1130E708091472390914823892B41F48091492301
S1130E800E94D010082F23C000E021C000E01FC042
S1130E9080914B2390914C23892B81F4809147239B
S1130EA090914823892B61F4C9E4D3E288810E949C
S1130EB0821188810E94D811082F09C000E007C060
S1130EC000E005C000E003C000E001C000E0011143
S1130ED089C0809145238F718130C1F58091D621DD
S1130EE08823A1F1C0914923D0914A230091D421B0
S1130EF01091D521D801ED91FC918481C81730F56A
S1130F0060E08C2FD4DC882309F1CE019927880F67
S1130F10991FD8011296ED91FC911397E80FF91FD0
S1130F2000811181D8011696ED91FC9117970995CE
S1130F30682F8C2FBCDC882349F0D8011496ED91DE
S1130F40FC9115970995082F81114CC08091452378
S1130F508F718230D9F58091D621882389F1E0916F
S1130F60D421F091D521A081B18114968C9188234C
S1130F7049F110E0212F30E0220F331F0280F3816A
S1130F80E02DE20FF31FC081D181EE81FF8109952D
S1130F90682F812F8CDC082F882321F1EC81FD81BF
S1130FA00995082F81111EC01F5FE091D421F09193
S1130FB0D521A081B18114968C911817D8F212C052
S1130FC000E010C000E00EC000E00CC000E00AC069
S1130FD0822F807609F07DCF84CE322F307609F0CF
S1130FE078CF8CCD802FDF91CF911F910F91FF90FF
S1130FF0EF9008951F920F920FB60F9211242F9322
S11310003F934F935F936F937F938F939F93AF938C
S1131010BF93EF93FF93E0910B22F0910C22309752
S113102009F00995FF91EF91BF91AF919F918F9135
S11310307F916F915F914F913F912F910F900FBED0
S11310400F901F9018951F920F920FB60F921124B4
S11310502F933F934F935F936F937F938F939F93BC
S1131060AF93BF93EF93FF93E0910922F0910A228B
S1131070309709F00995FF91EF91BF91AF919F913E
S11310808F917F916F915F914F913F912F910F902D
S11310900FBE0F901F9018951F920F920FB60F92CC
S11310A011242F933F934F935F936F937F938F9369
S11310B09F93AF93BF93EF93FF93E0910722F09137
S11310C00822309709F00995FF91EF91BF91AF91F4
S11310D09F918F917F916F915F914F913F912F914C
S11310E00F900FBE0F901F9018951F920F920FB67E
S11310F00F9211242F933F934F935F936F937F939A
S11311008F939F93AF93BF93EF93FF93E091052247
S1131110F0910622309709F00995FF91EF91BF9164
S1131120AF919F918F917F916F915F914F913F917B
S11311302F910F900FBE0F901F9018951F920F9232
S11311400FB60F9211242F933F934F935F936F9396
S11311507F938F939F93AF93BF93EF93FF93E0910C
S11311600322F0910422309709F00995FF91EF9141
S1131170BF91AF919F918F917F916F915F914F91AB
S11311803F912F910F900FBE0F901F9018951F92B3
S11311900F920FB60F9211242F933F934F935F93A7
S11311A06F937F938F939F93AF93BF93EF93FF932B
S11311B0E0910122F0910222309709F00995FF9104
S11311C0EF91BF91AF919F918F917F916F915F91BB
S11311D04F913F912F910F900FBE0F901F90189534
S11311E01F920F920FB60F9211242F933F934F9398
S11311F05F936F937F938F939F93AF93BF93EF937B
S1131200FF93E091FF21F0910022309709F00995B6
S1131210FF91EF91BF91AF919F918F917F916F91CA
S11312205F914F913F912F910F900FBE0F901F90A0
S113123018951F920F920FB60F9211242F933F937C
S11312404F935F936F937F938F939F93AF93BF93CA
S1131250EF93FF93E091FD21F091FE21309709F087
S11312600995FF91EF91BF91AF919F918F917F91DC
S11312706F915F914F913F912F910F900FBE0F90FF
S11312801F9018951F920F920FB60F9211242F934F
S11312903F934F935F936F937F938F939F93AF93FA
S11312A0BF93EF93FF93E091FB21F091FC213097E2
S11312B009F00995FF91EF91BF91AF919F918F91A3
S11312C07F916F915F914F913F912F910F900FBE3E
S11312D00F901F9018951F920F920FB60F92112422
S11312E02F933F934F935F936F937F938F939F932A
S11312F0AF93BF93EF93FF93E091F921F091FA211B
S1131300309709F00995FF91EF91BF91AF919F91AB
S11313108F917F916F915F914F913F912F910F909A
S11313200FBE0F901F9018951F920F920FB60F9239
S113133011242F933F934F935F936F937F938F93D6
S11313409F93AF93BF93EF93FF93E091F721F091B5
S1131350F821309709F00995FF91EF91BF91AF9172
S11313609F918F917F916F915F914F913F912F91B9
S11313700F900FBE0F901F9018951F920F920FB6EB
S11313800F9211242F933F934F935F936F937F9307
S11313908F939F93AF93BF93EF93FF93E091F521C6
S11313A0F091F621309709F00995FF91EF91BF91E3
S11313B0AF919F918F917F916F915F914F913F91E9
S11313C02F910F900FBE0F901F9018951F920F92A0
S11313D00FB60F9211242F933F934F935F936F9304
S11313E07F938F939F93AF93BF93EF93FF93E0917A
S11313F0F321F091F421309709F00995FF91EF91D1
S1131400BF91AF919F918F917F916F915F914F9118
S11314103F912F910F900FBE0F901F9018951F9220
S11314200F920FB60F9211242F933F934F935F9314
S11314306F937F938F939F93AF93BF93EF93FF9398
S1131440E091F121F091F221309709F00995FF9193
S1131450EF91BF91AF919F918F917F916F915F9128
S11314604F913F912F910F900FBE0F901F901895A1
S11314701F920F920FB60F9211242F933F934F9305
S11314805F936F937F938F939F93AF93BF93EF93E8
S1131490FF93E091EF21F091F021309709F0099545
S11314A0FF91EF91BF91AF919F918F917F916F9138
S11314B05F914F913F912F910F900FBE0F901F900E
S11314C018951F920F920FB60F9211242F933F93EA
S11314D04F935F936F937F938F939F93AF93BF9338
S11314E0EF93FF93E091ED21F091EE21309709F015
S11314F00995FF91EF91BF91AF919F918F917F914A
S11315006F915F914F913F912F910F900FBE0F906C
S11315101F9018951F920F920FB60F9211242F93BC
S11315203F934F935F936F937F938F939F93AF9367
S1131530BF93EF93FF93E091EB21F091EC2130976F
S113154009F00995FF91EF91BF91AF919F918F9110
S11315507F916F915F914F913F912F910F900FBEAB
S11315600F901F9018951F920F920FB60F9211248F
S11315702F933F934F935F936F937F938F939F9397
S1131580AF93BF93EF93FF93E091E921F091EA21A8
S1131590309709F00995FF91EF91BF91AF919F9119
S11315A08F917F916F915F914F913F912F910F9008
S11315B00FBE0F901F9018951F920F920FB60F92A7
S11315C011242F933F934F935F936F937F938F9344
S11315D09F93AF93BF93EF93FF93E091E721F09133
S11315E0E821309709F00995FF91EF91BF91AF91F0
S11315F09F918F917F916F915F914F913F912F9127
S11316000F900FBE0F901F9018951F920F920FB658
S11316100F9211242F933F934F935F936F937F9374
S11316208F939F93AF93BF93EF93FF93E091E52143
S1131630F091E621309709F00995FF91EF91BF9160
S1131640AF919F918F917F916F915F914F913F9156
S11316502F910F900FBE0F901F9018951F920F920D
S11316600FB60F9211242F933F934F935F936F9371
S11316707F938F939F93AF93BF93EF93FF93E091E7
S1131680E321F091E421309709F00995FF91EF915E
S1131690BF91AF919F918F917F916F915F914F9186
S11316A03F912F910F900FBE0F901F9018951F928E
S11316B00F920FB60F9211242F933F934F935F9382
S11316C06F937F938F939F93AF93BF93EF93FF9306
S11316D0E091E121F091E221309709F00995FF9121
S11316E0EF91BF91AF919F918F917F916F915F9196
S11316F04F913F912F910F900FBE0F901F9018950F
S11317001F920F920FB60F9211242F933F934F9372
S11317105F936F937F938F939F93AF93BF93EF9355
S1131720FF93E091DF21F091E021309709F00995D2
S1131730FF91EF91BF91AF919F918F917F916F91A5
S11317405F914F913F912F910F900FBE0F901F907B
S113175018951F920F920FB60F9211242F933F9357
S11317604F935F936F937F938F939F93AF93BF93A5
S1131770EF93FF93E091DD21F091DE21309709F0A2
S11317800995FF91EF91BF91AF919F918F917F91B7
S11317906F915F914F913F912F910F900FBE0F90DA
S11317A01F9018951F920F920FB60F9211242F932A
S11317B03F934F935F936F937F938F939F93AF93D5
S11317C0BF93EF93FF93E091DB21F091DC213097FD
S11317D009F00995FF91EF91BF91AF919F918F917E
S11317E07F916F915F914F913F912F910F900FBE19
S11317F00F901F9018951F920F920FB60F921124FD
S11318002F933F934F935F936F937F938F939F9304
S1131810AF93BF93EF93FF93E091D921F091DA2135
S1131820309709F00995FF91EF91BF91AF919F9186
S11318308F917F916F915F914F913F912F910F9075
S11318400FBE0F901F901895CF93DF93E0910D2258
S1131850F0910E22848183FF08C08860848383E032
S1131860838386EF8093172289C0982F947131F077
S113187083E083838FEF8093172280C086FF45C067
S1131880A0910F22B09110228091112290911222E6
S113189014962D913C911597821793076CF49C0133
S11318A02F5F3F4F2093112230931222A80FB91FAC
S11318B011968C91878362C0809113229091142297
S11318C018962D913C91199782179307C8F420918B
S11318D01522222321F08681816086834FC01696CB
S11318E02D913C911797AC014F5F5F4F40931322AA
S11318F050931422D901A80FB91F8C9187833EC03D
S113190083E083831092172239C08823A4F5A09121
S11319100F22B091102280911322909114221896D4
S11319202D913C91199782179307F8F416964D91CF
S11319305C9117979C012F5F3F4F209313223093A4
S113194014226781EA01C80FD91F688318968D9104
S11319509C9119972817390718F482E083830EC0E5
S113196087E083831092172209C083E0838389EF81
S11319708093172203C08BEF80931722DF91CF91BE
S113198008951F920F920FB60F9211242F933F9335
S11319904F935F936F937F938F939F93AF93BF9373
S11319A0EF93FF9351DFFF91EF91BF91AF919F911F
S11319B08F917F916F915F914F913F912F910F90F4
S11319C00FBE0F901F9018951F920F920FB60F9293
S11319D011242F933F934F935F936F937F938F9330
S11319E09F93AF93BF93EF93FF932EDFFF91EF91FC
S11319F0BF91AF919F918F917F916F915F914F9123
S1131A003F912F910F900FBE0F901F901895811149
S1131A1018C090914423992389F09FB7F894E6E580
S1131A20F3E22081215020839FBF08C09FB7F89420
S1131A30E6E5F3E220812F5F20839FBF8093442358
S1131A40089590914423992389F3F8CF0F93E8ECF8
S1131A50F4E080818F7D808380818F7D8083E8E1C5
S1131A60F3E202E0059310921A2310921B2300E282
S1131A70069300E40693E0E1F3E200E2069300E457
S1131A8006931092512310925223109253231092D2
S1131A90542310924F2310925023109201230F913C
S1131AA008950F9385E080930123E9E1F3E204E0D4
S1131AB00593E1E1F3E204E005930F9108950F9398
S1131AC083E08093012310921A2310921B23E8E1F0
S1131AD0F3E202E006930F910895E0915123F0910F
S1131AE05223309709F0099508950F93CF93DF930C
S1131AF080910123833019F4F0DFA8DF60C0809166
S1131B00FD229091FE22C0914F23D0915023C81BF7
S1131B10D90B71F52091FF2230910023820F931F7E
S1131B208093FF229093002320914B2330914C23E8
S1131B308217930721F080911822882341F084E0D2
S1131B4080930123E0E1F3E202E0069338C0E091E0
S1131B505323F0915423309799F00995882381F009
S1131B601092FD221092FE22C0914F23D091502357
S1131B70C034D10528F010921822C0E4D0E003C08C
S1131B8081E080931822C0931A23D0931B23809161
S1131B90FD229091FE2220914D2330914E23280F57
S1131BA0391F20931C2330931D23C80FD91FC093C2
S1131BB0FD22D093FE22E8E1F3E202E00693DF91F6
S1131BC0CF910F910895FC018181877090E0FC0111
S1131BD03197E730F10520F4E250FF4F0C94BF1920
S1131BE088E090E0089580E290E0089580E490E039
S1131BF0089580E890E0089580E091E0089580E001
S1131C0092E008958FEF93E0089580E190E00895C5
S1131C10282F2F7030E0220F331F992787FD9095CE
S1131C208827990F881F9927820F931F02979C0179
S1131C30220F331F220F331F220F331F820F931FD4
S1131C4087569D4D08950F93CF938091CC0480FFC8
S1131C5063C081E08093CC04E0E1F3E200E8069302
S1131C60E8E1F3E200E806938093CA04E0E1F3E2DA
S1131C7000E1069380910123882329F08350823068
S1131C8008F42BDFE3DE809112239091132308974D
S1131C9009F044C088E0EDEBF2E2A5E4B3E2019080
S1131CA00D928A95E1F7E8ECF4E08081806280830C
S1131CB08081806280830E945F05C82F811103C0E8
S1131CC0F0DEC1E02CC08091452388236CF410928F
S1131CD0FF22109200231092FD221092FE2282E035
S1131CE08093012302DF1BC020914B2330914C23AE
S1131CF0232B11F4E4DE13C01092FF221092002370
S1131D001092FD221092FE2281E080930123E0E1F3
S1131D10F3E202E0069303C0C0E001C0C1E08C2FEF
S1131D20CF910F910895BF92CF92DF92EF92FF92DD
S1131D300F931F93CF93DF93B82E6ADFEC011B2D13
S1131D40111F1127111F8B2D8F70E82EF12CEE0C13
S1131D50FF1CE10EF11CC701880F991F880F991F02
S1131D60880F991F9C01205F3C4D7901C9012BDF2D
S1131D706C01112309F45BC0D70116962D913C9197
S1131D8017978D819E81280F391F2D833E838B8168
S1131D909C8128173907C9F1FC01E21BF30B9F0151
S1131DA02115F4E03F0740F02FEF33E0C901B601FD
S1131DB00E94AB19281B390B888181FF0AC0C90115
S1131DC0B6010E94AB1941E0892B09F040E0942F41
S1131DD001C090E0888190FB81F98883D701169631
S1131DE01D921C92179712962D933C931397298159
S1131DF03A818D819E81820F931F14968D939C93BB
S1131E001597F70102E0069398C0888181FF87C087
S1131E108D7F8883D70116961D921C921797129670
S1131E201D921C921397F70102E0069386C0D70116
S1131E3012960D911C911397888182FF15C0E98138
S1131E40FA812D813E818B819C81B6010E94AB1960
S1131E50B0E4BB9EB001112467527E4DAC01CF01AA
S1131E60820F931F0E94251A2D813E81200F311F5E
S1131E702D833E83EB81FC81E217F30710F4ED839D
S1131E80FE83D70116968D919C9117978017910721
S1131E9009F045C08D819E81E817F90709F43FC018
S1131EA0E81BF90BE115B4E0FB0748F0EFEFF3E0B2
S1131EB0CF01B6010E94AB19E81BF90B06C0CF0194
S1131EC0B6010E94AB19E81BF90BD70112961D92BB
S1131ED01C921397EC15FD0578F48881846088833F
S1131EE0B0E4BB9EC001112487529E4DF701848348
S1131EF09583C682D7820FC029813A818D819E81C4
S1131F00820F931FD70114968D939C931597169661
S1131F10ED93FC931797F70102E006930EC08881B6
S1131F2080FF0BC08E7F8883EF81F885309729F07E
S1131F306D817E814B2D80E00995DF91CF911F91BA
S1131F400F91FF90EF90DF90CF90BF900895CF93C3
S1131F50CFB7F89481E05BDDEAECF4E080E48083C1
S1131F6080E28083E1ECF4E0808181608083A9ECED
S1131F70B4E08C9182608C93E8ECF4E0808180641E
S1131F8080838C9181608C93808180688083CFBFB3
S1131F90CF910895CF93DF93C0E6D0E0188280E319
S1131FA03BD4E0ECF4E080818064808381E088832A
S1131FB0CFB7F89410921123109219231092212371
S1131FC0109229231092312310923923E9E9F2E285
S1131FD080818E7F8083E2EAF2E280818E7F80833B
S1131FE0EBEAF2E280818E7F8083E4EBF2E280818F
S1131FF08E7F80836AE170E082E044D48F3F19F0E1
S11320008093FA0403C08FE18093FA046BE170E0DB
S113201082E038D48F3F19F08093FB0403C08FE132
S11320208093FB04E0ECF4E0808182608083808113
S11320308068808380818061808380E193E28683ED
S113204097838081806280838FEF8093C504E8EC5E
S1132050F4E0808181608083109244238FB7F894E8
S1132060EAE5F3E290819F5F90838FBF70DFCFBF7B
S1132070DF91CF91089580E008958093C30408957B
S11320808091C30408958091402390914123089541
S113209080E090E0089580934D2390934E236093C5
S11320A04F23709350230895E82FEF70F0E0EE0F64
S11320B0FF1F992787FD90958827990F881F9927D7
S11320C0E80FF91FEE0FFF1FEE0FFF1FEE0FFF1FAC
S11320D0E05FFC4D8181807C09F043C06370613016
S11320E029F010F480E403C080E801C080EC40389B
S11320F05105E1F050F440325105A1F0403451054E
S113210099F04031510561F419C0411592E0590725
S113211089F04F3F93E0590779F04115514041F060
S113212020E00DC022E00BC023E009C024E007C07A
S113213025E005C026E003C027E001C021E01182AC
S113214096E09083822B81838181807C803C21F482
S113215081818770873039F081818062818381E059
S1132160089580E0089581E00895E82FEF70F0E08D
S1132170EE0FFF1F992787FD90958827990F881FD9
S11321809927E80FF91FEE0FFF1FEE0FFF1FEE0F49
S1132190FF1FE05FFC4D818182FB882780F9089551
S11321A0E82FEF70F0E0EE0FFF1F282F332727FDF5
S11321B030952227330F221F3327E20FF31FEE0F30
S11321C0FF1FEE0FFF1FEE0FFF1FE05FFC4D91811D
S11321D092FF0EC091819B7F91831ADDFC01808167
S11321E080FF06C08E7F80830780F085E02D0995EF
S11321F081E008957F928F929F92AF92BF92CF9287
S1132200DF92EF92FF920F931F93CF93DF93982E59
S1132210862E5A016901FCDC7C01792C771C772419
S1132220771CC92DCF70D0E0CC0FDD1FC70DD11D99
S1132230CC0FDD1FCC0FDD1FCC0FDD1FC05FDC4DCD
S11322408981807C09F44CC08981807C803C19F0B0
S1132250898182FD47C08FB7F894F701908190FF80
S113226003C08FBF712C3FC0F701908191609083B0
S11322708FBFF701A182B282C382D48215821682F3
S113228007831087811006C091E0C114D10419F0AE
S113229090E001C091E0F701808190FB81F98B7F90
S11322A08083772019F01E821F8215C08981807C6B
S11322B0803C69F4CE0187DCBC01C6010E94AB19E5
S11322C0892B29F0F70180818E7F80830CC01A82CC
S11322D01B821E821F82892D26DD7724739403C0FE
S11322E0712C01C0712C872DDF91CF911F910F911B
S11322F0FF90EF90DF90CF90BF90AF909F908F9022
S11323007F900895FF920F931F93CF93DF93182F1D
S1132310F82EFF1CFF24FF1CC82FCF70D0E0CC0F79
S1132320DD1FCF0DD11DCC0FDD1FCC0FDD1FCC0F5A
S1132330DD1FC05FDC4D6CDCDC01FE0102E00593B7
S11323408C9180FF12C08E7F8C931796ED91FC9137
S11323501897309751F0FF2019F06E817F8102C0E9
S11323606A817B81412F81E00995DF91CF911F9193
S11323700F91FF900895CF93C82FC4DFEC2FEF7017
S1132380F0E0EE0FFF1F8C2F992787FD909588278B
S1132390990F881F9927E80FF91FEE0FFF1FEE0F03
S11323A0FF1FEE0FFF1FE05FFC4D1182CF910895D8
S11323B00F93E82FEF70F0E0EE0FFF1F282F332765
S11323C027FD30952227330F221F3327E20FF31FF7
S11323D0EE0FFF1FEE0FFF1FEE0FFF1FE05FFC4D20
S11323E091819460918301E006938CDF81E00F91E9
S11323F008951F920F920FB60F9211240F932F93EB
S11324003F934F935F936F937F938F939F93AF9378
S1132410BF93EF93FF938091CB04882334F480E837
S11324208093CA040E94300588C08091CB0482FF47
S113243020C084E08093CA048091182386FF7DC065
S11324408091CC0481FD79C0FEDB811176C080913E
S11324500123813011F433DB70C0843009F06DC086
S1132460E9E1F3E204E00593E1E1F3E204E005933A
S113247064C08091CB0481FF5BC082E08093CA0476
S11324808091102386FF59C08091CC0481FD55C0F2
S1132490DADB811152C080910123823041F484E05F
S11324A080930123E0E1F3E202E0069346C0833027
S11324B009F043C0E9E1F3E204E00593E1E1F3E26A
S11324C004E005933AC080E18093CA0481E01ADFF6
S11324D081E818DF0E9409051092C304E1E1F3E2E8
S11324E0108296E09093102383E48083E9E1F3E281
S11324F010829093182380838DEB92E280931423AF
S113250090931523A3DA19C08091CB0486FF06C0EB
S113251080E48093CA0480E07ADA0FC08091CB040F
S113252085FF0BC080E28093CA0481E070DA05C0A5
S11325308091CB0484FFE8CFC6CFFF91EF91BF9188
S1132540AF919F918F917F916F915F914F913F9147
S11325502F910F910F900FBE0F901F9018951F92FF
S11325600F920FB60F9211240F931F932F933F9343
S11325704F935F936F937F938F939F93AF93BF9387
S1132580CF93DF93EF93FF938091CC0481FD03C03D
S11325905ADB8111B8C082E08093CC048091C504D9
S11325A08195880FE0E1F3E2E81BF1092081318194
S11325B0205133423695279536952795369527959C
S11325C0822F869520FF02C090E801C090E0890F19
S11325D0E82FEF70F0E0EE0FFF1F282F332727FDC1
S11325E030952227330F221F3327E20FF31FEE0FFC
S11325F0FF1FEE0FFF1FEE0FFF1FE05FFC4D9081EA
S113260095FF81C000E20693811178C08091012377
S1132610843019F462DA1ADA76C0C0911223D091A8
S1132620132380914F23909150230091FD22109108
S1132630FE2298012C0F3D1F8217930718F4EC011A
S1132640C01BD10B80914D2390914E23AE016DEBB5
S113265072E2800F911FF9D60C0F1D1F0093FD220B
S11326601093FE22C034D10569F48091FF22909129
S11326700023800F911F20914B2330914C2382170C
S1132680930788F000934F2310935023E091532332
S1132690F0915423309729F00995811102C001DA91
S11326A032C00DDA30C080914F2390915023081727
S11326B01907F9F4E0915323F0915423309711F45E
S11326C0F0D921C00995811102C0EBD91CC0209119
S11326D0FF22309100238091FD229091FE22820FEF
S11326E0931F8093FF22909300231092FD22109257
S11326F0FE22E0E1F3E202E0069305C0803811F423
S1132700F4D901C010DBFF91EF91DF91CF91BF911C
S1132710AF919F918F917F916F915F914F913F9175
S11327202F911F910F910F900FBE0F901F9018952E
S1132730CF93DF9300D000D0CDB7DEB78FEF809377
S11327407000809371008093720080937300809373
S1132750740080937500809376006CE170E082E0F1
S113276091D08A836DE170E082E08CD08983898185
S11327709A81019621F480E493E289839A83898182
S11327809A818B839C83E0E6F0E082838C8183834F
S11327908FB7F894E0E5F0E09081926090838FBF6A
S11327A0818181FFFDCF8FB7F894A0E5B0E0169644
S11327B09C911697997F16969C931697E0E6F0E005
S11327C090E895839BEB968316969C91169794605C
S11327D016969C939081916090838FBF61E080E412
S11327E090E05AD08FB7F894E0E5F0E090819E7FB6
S11327F090838FBF2496CDBFDEBFDF91CF91089524
S11328009FB7F894E82FF0E0E059FF4F609580817E
S1132810682360839FBF0895863011F468E101C086
S113282060E0E0E5F0E0818181FD24C08FB7F89499
S11328309081926090838FBF818181FFFDCF8FB79C
S1132840F894A0E5B0E016969C911697997F169699
S11328509C931697E0E6F0E090E895839BEB9683D3
S113286016969C911697946016969C93908191600D
S113287090838FBF636084E490E00ED060E480E0D6
S1132880BFCF08954091CA01E62FF72F8093CA0164
S113289084914093CA0108951BBEFC0128ED24BF16
S11328A0608308954F925F926F927F92AF92BF922E
S11328B0CF92DF92EF92FF920F931F93CF93DF9308
S11328C0CDB7DEB7C25AD109CDBFDEBFCF55DF4F7A
S11328D018821982C15AD040E0E4F6E080E881838E
S11328E0868380E091E7A2E0B0E00197A109B109F5
S11328F00097A105B105C9F7E0E4F6E080E8858317
S1132900828323E030E061E070E0CF55DF4F18822E
S11329101982C15AD04018C0CF55DF4F88819981A0
S1132920C15AD0400196CF55DF4F88839983C15A4D
S1132930D040CF55DF4F88819981C15AD0408F3F15
S1132940910511F00CF0D9C08085992787FD9095E9
S11329508827990F881F992786179707E9F26B0133
S113296041E0C426215031092115310541F0B60159
S1132970CCCF01968115A1E09A0781F4C1C07E01F4
S1132980B1EAEB0EF11C8E010F5F1F4FE0E4F6E09D
S1132990412C512C3201439480E090E02085332770
S11329A027FD30952227330F221F3327C216D30663
S11329B001F320E030E007C02F5F3F4F211541E0D5
S11329C0340709F4A0C04085552747FD5095442796
S11329D0550F441F55274617570771F3821793075E
S11329E03CF4D8014D925D926D927C92139706C08F
S11329F0D8011D921D921D921C9213970C5F1F4FBC
S1132A000E151F0549F6FE01319627E130E0A12C91
S1132A10B12C40E050E060E070E0A0E0B0E080E085
S1132A2090E00F2EFFE0EF2EF12CF02D0F2EF7E0AB
S1132A30CF2ED12CF02D883091058CF4408051801C
S1132A40628073808601081B190B04C0440C551C5A
S1132A50661C771C0A95D2F7A429B52934C08031A5
S1132A6091058CF440805180628073808701081B3B
S1132A70190B04C0440C551C661C771C0A95D2F72C
S1132A806429752920C0803291057CF440805180EE
S1132A9062807380022E04C0440C551C661C771C93
S1132AA00A94D2F7442955290EC04080518062808F
S1132AB07380022E04C0440C551C661C771C0A94B7
S1132AC0D2F7A428B52801963496215031098832CA
S1132AD0910509F0B0CFBF92AF925F934F937F936C
S1132AE06F93BF93AF938AE890E29F938F93B6D48A
S1132AF0CDBFDEBF82E090E008C081E090E005C079
S1132B0081E090E002C081E090E0CE55DF4FCDBF80
S1132B10DEBFDF91CF911F910F91FF90EF90DF9077
S1132B20CF90BF90AF907F906F905F904F9008953B
S1132B30FFDD03D07CD2A7C20895E0E0F6E081E097
S1132B40818382E0818384E0818388E081830895A6
S1132B508130910531F08230910569F0892B79F447
S1132B6005C081E0E0E0F6E08583089581E0E0E0DF
S1132B70F6E08683089581E0E0E0F6E08783089537
S1132B808130910531F08230910569F0892B79F417
S1132B9005C082E0E0E0F6E08583089582E0E0E0AD
S1132BA0F6E08683089582E0E0E0F6E08783089506
S1132BB08130910531F08230910569F0892B79F4E7
S1132BC005C084E0E0E0F6E08583089584E0E0E079
S1132BD0F6E08683089584E0E0E0F6E087830895D4
S1132BE08130910531F08230910569F0892B79F4B7
S1132BF005C088E0E0E0F6E08583089588E0E0E041
S1132C00F6E08683089588E0E0E0F6E0878308959F
S1132C10AF92BF92CF92DF92EF92FF920F931F93E6
S1132C20CF93DF9300D0CDB7DEB782E390E0898302
S1132C309A8389819A81843691050CF0EBC181E0F5
S1132C4090E086DFE981FA819F2F990F990BA12CDF
S1132C500F2EFCE6BF2EF02D0F2EFCEDCF2EF02D07
S1132C606894DD24D1F8E12CF12C00E010E02E2F43
S1132C703F2F492F592F692F792F892F95D3295108
S1132C803C4F4F4F5F4F6F4F7F4F8F4F9F4FC4D27B
S1132C9020E030E84BEB55E41DD289D2F22FE32F2C
S1132CA08F2F9E2FA42FB52F0197A109B10900974B
S1132CB0A105B105C9F781E090E062DFE981FA81FD
S1132CC09F2F990F990BA12C0F2EFCE6BF2EF02DF0
S1132CD00F2EFCEDCF2EF02D6894DD24D1F8E12CDD
S1132CE0F12C00E010E02E2F3F2F492F592F692F90
S1132CF0792F892F59D329513C4F4F4F5F4F6F4F35
S1132D007F4F8F4F9F4F88D220E030E84BEB55E444
S1132D10E1D14DD2F22FE32F8F2F9E2FA42FB52F69
S1132D200197A109B1090097A105B105C9F781E08F
S1132D3090E03EDFE981FA819F2F990F990BA12C36
S1132D400F2EFCE6BF2EF02D0F2EFCEDCF2EF02D16
S1132D506894DD24D1F8E12CF12C00E010E02E2F52
S1132D603F2F492F592F692F792F892F1DD329518F
S1132D703C4F4F4F5F4F6F4F7F4F8F4F9F4F4CD202
S1132D8020E030E84BEB55E4A5D111D2F22FE32F2C
S1132D908F2F9E2FA42FB52F0197A109B10900975A
S1132DA0A105B105C9F781E090E01ADFE981FA8154
S1132DB09F2F990F990BA12C0F2EFCE6BF2EF02DFF
S1132DC00F2EFCEDCF2EF02D6894DD24D1F8E12CEC
S1132DD0F12C00E010E02E2F3F2F492F592F692F9F
S1132DE0792F892FE1D229513C4F4F4F5F4F6F4FBD
S1132DF07F4F8F4F9F4F10D220E030E84BEB55E4CC
S1132E0069D1D5D1F22FE32F8F2F9E2FA42FB52F69
S1132E100197A109B1090097A105B105C9F780E09F
S1132E2090E096DEE981FA819F2F990F990BA12CEE
S1132E300F2EFCE6BF2EF02D0F2EFCEDCF2EF02D25
S1132E406894DD24D1F8E12CF12C00E010E02E2F61
S1132E503F2F492F592F692F792F892FA5D2295117
S1132E603C4F4F4F5F4F6F4F7F4F8F4F9F4FD4D18A
S1132E7020E030E84BEB55E42DD199D1F22FE32F2C
S1132E808F2F9E2FA42FB52F0197A109B109009769
S1132E90A105B105C9F780E090E072DEE981FA810D
S1132EA09F2F990F990BA12C0F2EFCE6BF2EF02D0E
S1132EB00F2EFCEDCF2EF02D6894DD24D1F8E12CFB
S1132EC0F12C00E010E02E2F3F2F492F592F692FAE
S1132ED0792F892F69D229513C4F4F4F5F4F6F4F44
S1132EE07F4F8F4F9F4F98D120E030E84BEB55E454
S1132EF0F1D05DD1F22FE32F8F2F9E2FA42FB52F6A
S1132F000197A109B1090097A105B105C9F780E0AE
S1132F1090E04EDEE981FA819F2F990F990BA12C45
S1132F200F2EFCE6BF2EF02D0F2EFCEDCF2EF02D34
S1132F306894DD24D1F8E12CF12C00E010E02E2F70
S1132F403F2F492F592F692F792F892F2DD229519E
S1132F503C4F4F4F5F4F6F4F7F4F8F4F9F4F5CD111
S1132F6020E030E84BEB55E4B5D021D1F22FE32F2C
S1132F708F2F9E2FA42FB52F0197A109B109009778
S1132F80A105B105C9F780E090E02ADEE981FA8164
S1132F909F2F990F990BA12C0F2EFCE6BF2EF02D1D
S1132FA00F2EFCEDCF2EF02D6894DD24D1F8E12C0A
S1132FB0F12C00E010E02E2F3F2F492F592F692FBD
S1132FC0792F892FF1D129513C4F4F4F5F4F6F4FCC
S1132FD07F4F8F4F9F4F20D120E030E84BEB55E4DB
S1132FE079D0E5D0F22FE32F8F2F9E2FA42FB52F6A
S1132FF00197A109B1090097A105B105C9F7898114
S11330009A810F9689839A8389819A81843691055E
S11330100CF415CE0F900F90DF91CF911F910F916B
S1133020FF90EF90DF90CF90BF90AF90089588E02D
S1133030E0E4F6E082830895CF93C82F8A3021F428
S11330408DE090E00E9418048C2F992787FD9095BD
S11330500E94180480E090E0CF9108950F931F938D
S1133060CF93DF938C010E944A038823E1F30E94EB
S11330709603EC01B801E0DFCE019927DF91CF91EF
S11330801F910F91089587E0E0EAF0E0828378943D
S11330900E9406050E94A70F8CE790E280935D23AF
S11330A090935E2380935B2390935C23089540DD8B
S11330B0AFDD00E019E0DDE3C0E0802F912FAD2FFC
S11330C0BC2F0197A109B1090097A105B105C9F762
S11330D0E9DBF3CF0CD005C1FDD040F0F4D030F0E3
S11330E021F45F3F19F0D6C051112FC1D9C00AD1C4
S11330F098F39923C9F35523B1F3951B550BBB27BB
S1133100AA2762177307840738F09F5F5F4F220F67
S1133110331F441FAA1FA9F333D00E2E3AF0E0E860
S113312030D091505040E695001CCAF729D0FE2FAC
S113313027D0660F771F881FBB1F2617370748073E
S1133140AB07B0E809F0BB0B802DBF01FF279358F4
S11331505F4F2AF09E3F510568F09CC0F6C05F3F68
S1133160ECF3983EDCF3869577956795B795F795DC
S11331709F5FC9F7880F911D9695879597F90895D4
S1133180E1E0660F771F881FBB1F62177307840770
S1133190BA0720F0621B730B840BBA0BEE1F88F77F
S11331A0E0950895BEE304D008F490E80895BFE3E1
S11331B022273327A901AED058F19F5740F1B91700
S11331C038F1BFE3B91B9927B8503AF4660F771F5B
S11331D0881F991FB395D2F316C0B8504AF0232F15
S11331E0342F452F562F672F782F8827B850BAF7DA
S11331F0B85F49F0869577956795579547953795C4
S11332002795BA95B9F70EF44ED08894089588940A
S113321060E070E0CB010895E894F92F96EBFF236A
S113322081F0121613061406440B9395F6958795B0
S11332307795679557954040FF23B9F71BC09927A9
S11332400895882351F49850D2F7872B762F652F51
S1133250542F432F322F20E0B1F312161306140615
S1133260440B88233AF09A95440F551F661F771F25
S1133270881FCAF755234AF4440F551F11F460FF01
S113328004C06F5F7F4F8F4F9F4F880F9695879530
S113329097F9089597F99F6780E870E060E00895D2
S11332A09FEF80EC0895909580957095609550956A
S11332B04095309521953F4F4F4F5F4F6F4F7F4F54
S11332C08F4F9F4F089500240A9416161706180668
S11332D00906089500240A94121613061406050616
S11332E00895092E0394000C11F4882352F0BB0FA7
S11332F040F4BF2B11F460FF04C06F5F7F4F8F4F0A
S11333009F4F089557FD9058440F551F59F05F3F44
S113331071F04795880F97FB991F61F09F3F79F0F3
S113332087950895121613061406551FF2CF469575
S1133330F1DF08C0161617061806991FF1CF8695F7
S11333407105610508940895E894BB2766277727DB
S1133350CB0197F90895AA1BBB1B51E107C0AA1F13
S1133360BB1FA617B70710F0A61BB70B881F991F22
S11333705A95A9F780959095BC01CD010895EE0F5B
S1133380FF1F0590F491E02D0994A29FB001B39F13
S1133390C001A39F700D811D1124911DB29F700D5A
S11333A0811D1124911D0895DF93CF931F930F93D3
S11333B09A9DF02D219FF00D8B9DF00D8A9DE02D9F
S11333C0F10D039FF00D029FE00DF11D4E9DE00DE8
S11333D0F11D5E9DF00D4F9DF00D7F936F93BF9295
S11333E0AF925F934F93D501D0DF8B01AC01D7012E
S11333F0CCDFEB01E80FF91FD6011FD02F913F91CD
S1133400D601C3DFC60FD71FE81FF91FAF91BF91C5
S113341014D02F913F91B9DFC60FD71FE81FF91FB2
S1133420D601B3DFE60FF71F9801BE01CF011124C7
S11334300F911F91CF91DF910895A7DF460F571F7A
S1133440C81FD91F08F431960895FB01DC0102C09E
S113345001900D9241505040D8F70895A0E0B0E09B
S1133460E3E3FAE185C2FE01359661917191AF0102
S113347080915D2390915E2302D0E2E092C2ACE0A1
S1133480B0E0E4E4FAE164C27C016B018A01FC016E
S113349016821782838181FFB0C1CE0101964C014F
S11334A0F7019381F60193FD859193FF81916F015B
S11334B0882309F49EC1853239F493FD859193FFE5
S11334C081916F01853221F4B70190E0B1D1E8CF49
S11334D0512C312C20E02032A0F48B3269F030F4EE
S11334E0803259F0833269F420612CC08D3239F076
S11334F0803339F4216026C02260246023C0286010
S113350021C027FD27C030ED380F3A3078F426FF6C
S113351006C0FAE05F9E300D1124532E13C08AE0DA
S1133520389E300D1124332E20620CC08E3221F4CB
S113353026FD5FC1206406C08C3611F4206802C0E9
S1133540883641F4F60193FD859193FF81916F01D3
S11335508111C1CF982F9F7D9554933028F40C5F2F
S11335601F4FFFE3F9830DC0833631F0833771F0C9
S1133570833509F057C021C0F801808189830E5F2B
S11335801F4F44244394512C540114C03801F2E0D9
S11335906F0E711CF801A080B18026FF03C0652D59
S11335A070E002C06FEF7FEFC5012C8736D12C018C
S11335B083012C852F77222E16C03801F2E06F0E7E
S11335C0711CF801A080B18026FF03C0652D70E056
S11335D002C06FEF7FEFC5012C8714D12C012C851D
S11335E02068222E830123FC19C0832D90E0481605
S11335F05906A0F4B70180E290E01AD13A94F5CFCD
S1133600F50127FC859127FE81915F01B70190E0C8
S11336100FD131103A94F1E04F1A5108411451047A
S113362079F7DEC0843611F0893631F5F80127FFC9
S113363007C060817181828193810C5F1F4F08C034
S113364060817181882777FD8095982F0E5F1F4FC9
S11336502F76B22E97FF09C090958095709561954D
S11336607F4F8F4F9F4F2068B22E2AE030E0A40195
S113367011D1A82EA81843C0853729F42F7EB22E65
S11336802AE030E025C0F22FF97FBF2E8F36C1F03B
S113369018F4883579F0ADC0803719F0883721F0F7
S11336A0A8C02F2F2061B22EB4FE0DC08B2D8460D4
S11336B0B82E09C024FF0AC09F2F9660B92E06C0F9
S11336C028E030E005C020E130E002C020E132E033
S11336D0F801B7FE07C060817181828193810C5F1C
S11336E01F4F06C06081718180E090E00E5F1F4F24
S11336F0A401D0D0A82EA818FB2DFF77BF2EB6FEAC
S11337000BC02B2D2E7FA51450F4B4FE0AC0B2FCBE
S113371008C02B2D2E7E05C07A2C2B2D03C07A2CAD
S113372001C0752C24FF0DC0FE01EA0DF11D80813E
S1133730803311F4297E09C022FF06C07394739468
S113374004C0822F867809F0739423FD12C020FFF1
S113375006C05A2C731418F4530C5718732C731492
S113376060F4B70180E290E02C8762D073942C85DA
S1133770F6CF731410F4371801C0312C24FF11C094
S1133780B70180E390E02C8753D02C8522FF16C02C
S113379021FF03C088E590E002C088E790E0B7010C
S11337A00CC0822F867851F021FD02C080E201C056
S11337B08BE227FD8DE2B70190E03AD0A51430F4F6
S11337C0B70180E390E034D05A94F8CFAA94F4017E
S11337D0EA0DF11D8081B70190E02AD0A110F6CF47
S11337E0332009F45DCEB70180E290E021D03A9411
S11337F0F7CFF7018681978102C08FEF9FEF2C9658
S1133800E2E1BFC0FC010590615070400110D8F79F
S1133810809590958E0F9F1F0895FC016150704014
S113382001900110D8F7809590958E0F9F1F0895F1
S11338300F931F93CF93DF93182F092FEB018B81E5
S113384081FD03C08FEF9FEF20C082FF10C04E8127
S11338505F812C813D81421753077CF4E881F98113
S11338609F012F5F3F4F28833983108306C0E8856B
S1133870F985812F0995892B29F72E813F812F5FA7
S11338803F4F2E833F83812F902FDF91CF911F9144
S11338900F910895FA01AA27283051F1203181F1BE
S11338A0E8946F936E7F6E5F7F4F8F4F9F4FAF4F44
S11338B0B1E03ED0B4E03CD0670F781F891F9A1F57
S11338C0A11D680F791F8A1F911DA11D6A0F711D0B
S11338D0811D911DA11D20D009F468943F912AE017
S11338E0269F11243019305D3193DEF6CF010895FF
S11338F0462F4770405D4193B3E00FD0C9F7F6CF30
S1133900462F4F70405D4A3318F0495D31FD4052F7
S1133910419302D0A9F7EACFB4E0A695979587958D
S113392077956795BA95C9F700976105710508956C
S11339309B01AC010A2E0694579547953795279518
S1133940BA95C9F7620F731F841F951FA01D0895B0
S11339502F923F924F925F926F927F928F929F929B
S1133960AF92BF92CF92DF92EF92FF920F931F9389
S1133970CF93DF93CDB7DEB7CA1BDB0BCDBFDEBF62
S113398009942A88398848885F846E847D848C846D
S11339909B84AA84B984C884DF80EE80FD800C8176
S11339A01B81AA81B981CE0FD11DCDBFDEBFED0130
S10939B00895F894FFCF16
S11339B6E70261016B016D01830223015B016F0163
S11339C66D010000040309046A201E20000026205D
S11339D622200A20002009024300020100C0320905
S11339E6040000010202010005240010010424025F
S11339F6020524060001052401030107058203408C
S1133A06001009040100020A0000000705810240B3
S1133A160000070502024000000012010002020035
S1133A260040EB0304240001000000010000000331
S1133A36000000001C182E1800005248203D2025C6
S1133A46642E25643A2054656D70203D2025642E2D
S1073A5625640A00D5
S9030000FC
